S0150000536D6172745F50726F6A6563742E73726563D2
S11300000C942A000C9434000C9434000C943400A6
S11300100C9434000C9434000C9434000C9434008C
S11300200C9434000C9434000C9434000C9434007C
S11300300C9434000C9434000C9434000C9434006C
S11300400C9434000C9434000C9434000C9434005C
S11300500C94340011241FBECFE5D8E0DEBFCDBF21
S11300600E943E000C943E010C94000087E690E050
S11300700E94310108950E9438010895CF93DF93BF
S11300801F92CDB7DEB7198242E060EB81E00E9497
S11300907D0040E060E481E00E947D0040E061E09A
S11300A083E00E947D0042E062E083E00E947D00E4
S11300B042E062E080E00E947D000E94360023E07E
S11300C040E060E081E00E940B01CE0101960E94B5
S11300D03B0089818823C9F340E060E181E00E940C
S11300E0CB0060E070E089810E94210141E060E181
S11300F081E00E94CB001982E8CF8130E1F018F052
S1130100833089F10895413049F018F0423079F094
S113011008958AB3609568236ABB08958AB3962FBD
S1130120909589238ABB8BB3682B6BBB08958AB3E4
S1130130682B6ABB0895413049F018F0423079F0D9
S1130140089587B36095682367BB089587B3962F96
S11301509095892387BB88B3682B68BB089587B3C0
S1130160682B67BB0895413049F018F0423079F0AC
S1130170089581B36095682361BB089581B3962F78
S11301809095892381BB82B3682B62BB089581B3A8
S1130190682B61BB08958130A1F028F08230F9F01A
S11301A0833059F10895442319F0413031F0089512
S11301B08BB3609568236BBB08958BB3682B6BBBC3
S11301C00895442319F0413031F0089588B36095BF
S11301D0682368BB089588B3682B68BB08954423DB
S11301E019F0413031F0089585B36095682365BBFB
S11301F0089585B3682B65BB0895442319F04130F5
S113020031F0089582B36095682362BB089582B388
S1130210682B62BB08951DB820FF709A9DB1440FEE
S1130220440F9064492B30E1839FC0011124842B37
S113023090E2699FB0011124682B2695262B2DB9D5
S113024008958FB9779909C084E695E09A95F1F7F6
S11302500000779902C08150C1F78FB1FB01808300
S1130260089528E12AB926E820BD89B990BD0895EA
S11302705F9B03C02CB1FC0120830895F894FFCF49
S9030000FC
