S0170000736D6172745F70726F6A65637420322E737265633E
S11300000C942A000C9434000C9434000C943400A6
S11300100C9434000C9434000C9434000C9434008C
S11300200C9434000C9434000C9434000C9434007C
S11300300C9434000C9434000C9434000C9434006C
S11300400C9434000C9434000C9434000C9434005C
S11300500C94340011241FBECFE5D8E0DEBFCDBF21
S11300600E9436000C942A010C940000CF93DF9375
S11300701F92CDB7DEB740E060EB81E00E947F00C5
S113008042E060E481E00E947F0042E068E083E0B7
S11300900E947F0042E064E083E00E947F0023E04E
S11300A040E060E080E00E940D01BE016F5F7F4F81
S11300B080E00E94230189818234D9F018F48134CC
S11300C091F0F3CF813619F0823639F0EECF41E06A
S11300D068E083E00E94CD00E8CF41E064E083E083
S11300E00E94CD00E2CF40E068E083E00E94CD00B2
S11300F0DCCF40E064E083E00E94CD00D6CF8130C5
S1130100E1F018F0833089F10895413049F018F096
S1130110423079F008958AB3609568236ABB0895E4
S11301208AB3962F909589238ABB8BB3682B6BBBBC
S113013008958AB3682B6ABB0895413049F018F0DA
S1130140423079F0089587B36095682367BB0895BA
S113015087B3962F9095892387BB88B3682B68BB98
S1130160089587B3682B67BB0895413049F018F0B0
S1130170423079F0089581B36095682361BB089596
S113018081B3962F9095892381BB82B3682B62BB80
S1130190089581B3682B61BB08958130A1F028F0E4
S11301A08230F9F0833059F10895442319F0413035
S11301B031F008958BB3609568236BBB08958BB3BE
S11301C0682B6BBB0895442319F0413031F0089536
S11301D088B36095682368BB089588B3682B68BBAF
S11301E00895442319F0413031F0089585B36095A2
S11301F0682365BB089585B3682B65BB08954423C4
S113020019F0413031F0089582B36095682362BBE0
S1130210089582B3682B62BB08951DB820FF709ABD
S11302209DB1440F440F9064492B30E1839FC0017A
S11302301124842B90E2699FB0011124682B269528
S1130240262B2DB90895779B04C09FB1FB019083A1
S10B02508FB90895F894FFCF63
S9030000FC
